{
	"contracts/calculator.sol": {
		"calculator": {
			"abi": [
				{
					"inputs": [
						{
							"internalType": "uint256",
							"name": "a",
							"type": "uint256"
						}
					],
					"name": "add",
					"outputs": [],
					"stateMutability": "nonpayable",
					"type": "function"
				},
				{
					"inputs": [
						{
							"internalType": "uint256",
							"name": "a",
							"type": "uint256"
						}
					],
					"name": "divide",
					"outputs": [],
					"stateMutability": "nonpayable",
					"type": "function"
				},
				{
					"inputs": [
						{
							"internalType": "uint256",
							"name": "a",
							"type": "uint256"
						}
					],
					"name": "multiply",
					"outputs": [],
					"stateMutability": "nonpayable",
					"type": "function"
				},
				{
					"inputs": [
						{
							"internalType": "uint256",
							"name": "a",
							"type": "uint256"
						}
					],
					"name": "power",
					"outputs": [],
					"stateMutability": "nonpayable",
					"type": "function"
				},
				{
					"inputs": [],
					"name": "show",
					"outputs": [
						{
							"internalType": "uint256",
							"name": "",
							"type": "uint256"
						}
					],
					"stateMutability": "view",
					"type": "function"
				},
				{
					"inputs": [
						{
							"internalType": "uint256",
							"name": "a",
							"type": "uint256"
						}
					],
					"name": "subtract",
					"outputs": [],
					"stateMutability": "nonpayable",
					"type": "function"
				}
			],
			"devdoc": {
				"kind": "dev",
				"methods": {},
				"version": 1
			},
			"evm": {
				"assembly": "    /* \"contracts/calculator.sol\":56:545  contract calculator{... */\n  mstore(0x40, 0x80)\n    /* \"contracts/calculator.sol\":97:98  0 */\n  0x00\n    /* \"contracts/calculator.sol\":81:98  uint256 result =0 */\n  dup1\n  sstore\n    /* \"contracts/calculator.sol\":56:545  contract calculator{... */\n  callvalue\n  dup1\n  iszero\n  tag_1\n  jumpi\n  0x00\n  dup1\n  revert\ntag_1:\n  pop\n  dataSize(sub_0)\n  dup1\n  dataOffset(sub_0)\n  0x00\n  codecopy\n  0x00\n  return\nstop\n\nsub_0: assembly {\n        /* \"contracts/calculator.sol\":56:545  contract calculator{... */\n      mstore(0x40, 0x80)\n      callvalue\n      dup1\n      iszero\n      tag_1\n      jumpi\n      0x00\n      dup1\n      revert\n    tag_1:\n      pop\n      jumpi(tag_2, lt(calldatasize, 0x04))\n      shr(0xe0, calldataload(0x00))\n      dup1\n      0x1003e2d2\n      eq\n      tag_3\n      jumpi\n      dup1\n      0x1dc05f17\n      eq\n      tag_4\n      jumpi\n      dup1\n      0x3e823f79\n      eq\n      tag_5\n      jumpi\n      dup1\n      0xc6888fa1\n      eq\n      tag_6\n      jumpi\n      dup1\n      0xcc193fb0\n      eq\n      tag_7\n      jumpi\n      dup1\n      0xcc80f6f3\n      eq\n      tag_8\n      jumpi\n    tag_2:\n      0x00\n      dup1\n      revert\n        /* \"contracts/calculator.sol\":104:160  function add(uint256 a) public{... */\n    tag_3:\n      tag_9\n      0x04\n      dup1\n      calldatasize\n      sub\n      dup2\n      add\n      swap1\n      tag_10\n      swap2\n      swap1\n      tag_11\n      jump\t// in\n    tag_10:\n      tag_12\n      jump\t// in\n    tag_9:\n      stop\n        /* \"contracts/calculator.sol\":165:226  function subtract(uint256 a) public{... */\n    tag_4:\n      tag_13\n      0x04\n      dup1\n      calldatasize\n      sub\n      dup2\n      add\n      swap1\n      tag_14\n      swap2\n      swap1\n      tag_11\n      jump\t// in\n    tag_14:\n      tag_15\n      jump\t// in\n    tag_13:\n      stop\n        /* \"contracts/calculator.sol\":297:388  function divide(uint256 a) public{... */\n    tag_5:\n      tag_16\n      0x04\n      dup1\n      calldatasize\n      sub\n      dup2\n      add\n      swap1\n      tag_17\n      swap2\n      swap1\n      tag_11\n      jump\t// in\n    tag_17:\n      tag_18\n      jump\t// in\n    tag_16:\n      stop\n        /* \"contracts/calculator.sol\":231:292  function multiply(uint256 a) public{... */\n    tag_6:\n      tag_19\n      0x04\n      dup1\n      calldatasize\n      sub\n      dup2\n      add\n      swap1\n      tag_20\n      swap2\n      swap1\n      tag_11\n      jump\t// in\n    tag_20:\n      tag_21\n      jump\t// in\n    tag_19:\n      stop\n        /* \"contracts/calculator.sol\":393:458  function power(uint256 a) public{... */\n    tag_7:\n      tag_22\n      0x04\n      dup1\n      calldatasize\n      sub\n      dup2\n      add\n      swap1\n      tag_23\n      swap2\n      swap1\n      tag_11\n      jump\t// in\n    tag_23:\n      tag_24\n      jump\t// in\n    tag_22:\n      stop\n        /* \"contracts/calculator.sol\":463:538  function show() public view returns (uint256){... */\n    tag_8:\n      tag_25\n      tag_26\n      jump\t// in\n    tag_25:\n      mload(0x40)\n      tag_27\n      swap2\n      swap1\n      tag_28\n      jump\t// in\n    tag_27:\n      mload(0x40)\n      dup1\n      swap2\n      sub\n      swap1\n      return\n        /* \"contracts/calculator.sol\":104:160  function add(uint256 a) public{... */\n    tag_12:\n        /* \"contracts/calculator.sol\":152:153  a */\n      dup1\n        /* \"contracts/calculator.sol\":144:150  result */\n      0x00\n      dup1\n        /* \"contracts/calculator.sol\":144:153  result+=a */\n      dup3\n      dup3\n      sload\n      tag_30\n      swap2\n      swap1\n      tag_31\n      jump\t// in\n    tag_30:\n      swap3\n      pop\n      pop\n      dup2\n      swap1\n      sstore\n      pop\n        /* \"contracts/calculator.sol\":104:160  function add(uint256 a) public{... */\n      pop\n      jump\t// out\n        /* \"contracts/calculator.sol\":165:226  function subtract(uint256 a) public{... */\n    tag_15:\n        /* \"contracts/calculator.sol\":218:219  a */\n      dup1\n        /* \"contracts/calculator.sol\":210:216  result */\n      0x00\n      dup1\n        /* \"contracts/calculator.sol\":210:219  result-=a */\n      dup3\n      dup3\n      sload\n      tag_33\n      swap2\n      swap1\n      tag_34\n      jump\t// in\n    tag_33:\n      swap3\n      pop\n      pop\n      dup2\n      swap1\n      sstore\n      pop\n        /* \"contracts/calculator.sol\":165:226  function subtract(uint256 a) public{... */\n      pop\n      jump\t// out\n        /* \"contracts/calculator.sol\":297:388  function divide(uint256 a) public{... */\n    tag_18:\n        /* \"contracts/calculator.sol\":346:347  0 */\n      0x00\n        /* \"contracts/calculator.sol\":343:344  a */\n      dup2\n        /* \"contracts/calculator.sol\":343:347  a!=0 */\n      eq\n        /* \"contracts/calculator.sol\":340:382  if(a!=0){... */\n      tag_36\n      jumpi\n        /* \"contracts/calculator.sol\":370:371  a */\n      dup1\n        /* \"contracts/calculator.sol\":362:368  result */\n      0x00\n      dup1\n        /* \"contracts/calculator.sol\":362:371  result/=a */\n      dup3\n      dup3\n      sload\n      tag_37\n      swap2\n      swap1\n      tag_38\n      jump\t// in\n    tag_37:\n      swap3\n      pop\n      pop\n      dup2\n      swap1\n      sstore\n      pop\n        /* \"contracts/calculator.sol\":340:382  if(a!=0){... */\n    tag_36:\n        /* \"contracts/calculator.sol\":297:388  function divide(uint256 a) public{... */\n      pop\n      jump\t// out\n        /* \"contracts/calculator.sol\":231:292  function multiply(uint256 a) public{... */\n    tag_21:\n        /* \"contracts/calculator.sol\":284:285  a */\n      dup1\n        /* \"contracts/calculator.sol\":276:282  result */\n      0x00\n      dup1\n        /* \"contracts/calculator.sol\":276:285  result*=a */\n      dup3\n      dup3\n      sload\n      tag_40\n      swap2\n      swap1\n      tag_41\n      jump\t// in\n    tag_40:\n      swap3\n      pop\n      pop\n      dup2\n      swap1\n      sstore\n      pop\n        /* \"contracts/calculator.sol\":231:292  function multiply(uint256 a) public{... */\n      pop\n      jump\t// out\n        /* \"contracts/calculator.sol\":393:458  function power(uint256 a) public{... */\n    tag_24:\n        /* \"contracts/calculator.sol\":450:451  a */\n      dup1\n        /* \"contracts/calculator.sol\":442:448  result */\n      sload(0x00)\n        /* \"contracts/calculator.sol\":442:451  result**a */\n      tag_43\n      swap2\n      swap1\n      tag_44\n      jump\t// in\n    tag_43:\n        /* \"contracts/calculator.sol\":435:441  result */\n      0x00\n        /* \"contracts/calculator.sol\":435:451  result=result**a */\n      dup2\n      swap1\n      sstore\n      pop\n        /* \"contracts/calculator.sol\":393:458  function power(uint256 a) public{... */\n      pop\n      jump\t// out\n        /* \"contracts/calculator.sol\":463:538  function show() public view returns (uint256){... */\n    tag_26:\n        /* \"contracts/calculator.sol\":500:507  uint256 */\n      0x00\n        /* \"contracts/calculator.sol\":525:531  result */\n      dup1\n      sload\n        /* \"contracts/calculator.sol\":518:531  return result */\n      swap1\n      pop\n        /* \"contracts/calculator.sol\":463:538  function show() public view returns (uint256){... */\n      swap1\n      jump\t// out\n        /* \"#utility.yul\":88:205   */\n    tag_47:\n        /* \"#utility.yul\":197:198   */\n      0x00\n        /* \"#utility.yul\":194:195   */\n      dup1\n        /* \"#utility.yul\":187:199   */\n      revert\n        /* \"#utility.yul\":334:411   */\n    tag_49:\n        /* \"#utility.yul\":371:378   */\n      0x00\n        /* \"#utility.yul\":400:405   */\n      dup2\n        /* \"#utility.yul\":389:405   */\n      swap1\n      pop\n        /* \"#utility.yul\":334:411   */\n      swap2\n      swap1\n      pop\n      jump\t// out\n        /* \"#utility.yul\":417:539   */\n    tag_50:\n        /* \"#utility.yul\":490:514   */\n      tag_64\n        /* \"#utility.yul\":508:513   */\n      dup2\n        /* \"#utility.yul\":490:514   */\n      tag_49\n      jump\t// in\n    tag_64:\n        /* \"#utility.yul\":483:488   */\n      dup2\n        /* \"#utility.yul\":480:515   */\n      eq\n        /* \"#utility.yul\":470:533   */\n      tag_65\n      jumpi\n        /* \"#utility.yul\":529:530   */\n      0x00\n        /* \"#utility.yul\":526:527   */\n      dup1\n        /* \"#utility.yul\":519:531   */\n      revert\n        /* \"#utility.yul\":470:533   */\n    tag_65:\n        /* \"#utility.yul\":417:539   */\n      pop\n      jump\t// out\n        /* \"#utility.yul\":545:684   */\n    tag_51:\n        /* \"#utility.yul\":591:596   */\n      0x00\n        /* \"#utility.yul\":629:635   */\n      dup2\n        /* \"#utility.yul\":616:636   */\n      calldataload\n        /* \"#utility.yul\":607:636   */\n      swap1\n      pop\n        /* \"#utility.yul\":645:678   */\n      tag_67\n        /* \"#utility.yul\":672:677   */\n      dup2\n        /* \"#utility.yul\":645:678   */\n      tag_50\n      jump\t// in\n    tag_67:\n        /* \"#utility.yul\":545:684   */\n      swap3\n      swap2\n      pop\n      pop\n      jump\t// out\n        /* \"#utility.yul\":690:1019   */\n    tag_11:\n        /* \"#utility.yul\":749:755   */\n      0x00\n        /* \"#utility.yul\":798:800   */\n      0x20\n        /* \"#utility.yul\":786:795   */\n      dup3\n        /* \"#utility.yul\":777:784   */\n      dup5\n        /* \"#utility.yul\":773:796   */\n      sub\n        /* \"#utility.yul\":769:801   */\n      slt\n        /* \"#utility.yul\":766:885   */\n      iszero\n      tag_69\n      jumpi\n        /* \"#utility.yul\":804:883   */\n      tag_70\n      tag_47\n      jump\t// in\n    tag_70:\n        /* \"#utility.yul\":766:885   */\n    tag_69:\n        /* \"#utility.yul\":924:925   */\n      0x00\n        /* \"#utility.yul\":949:1002   */\n      tag_71\n        /* \"#utility.yul\":994:1001   */\n      dup5\n        /* \"#utility.yul\":985:991   */\n      dup3\n        /* \"#utility.yul\":974:983   */\n      dup6\n        /* \"#utility.yul\":970:992   */\n      add\n        /* \"#utility.yul\":949:1002   */\n      tag_51\n      jump\t// in\n    tag_71:\n        /* \"#utility.yul\":939:1002   */\n      swap2\n      pop\n        /* \"#utility.yul\":895:1012   */\n      pop\n        /* \"#utility.yul\":690:1019   */\n      swap3\n      swap2\n      pop\n      pop\n      jump\t// out\n        /* \"#utility.yul\":1025:1143   */\n    tag_52:\n        /* \"#utility.yul\":1112:1136   */\n      tag_73\n        /* \"#utility.yul\":1130:1135   */\n      dup2\n        /* \"#utility.yul\":1112:1136   */\n      tag_49\n      jump\t// in\n    tag_73:\n        /* \"#utility.yul\":1107:1110   */\n      dup3\n        /* \"#utility.yul\":1100:1137   */\n      mstore\n        /* \"#utility.yul\":1025:1143   */\n      pop\n      pop\n      jump\t// out\n        /* \"#utility.yul\":1149:1371   */\n    tag_28:\n        /* \"#utility.yul\":1242:1246   */\n      0x00\n        /* \"#utility.yul\":1280:1282   */\n      0x20\n        /* \"#utility.yul\":1269:1278   */\n      dup3\n        /* \"#utility.yul\":1265:1283   */\n      add\n        /* \"#utility.yul\":1257:1283   */\n      swap1\n      pop\n        /* \"#utility.yul\":1293:1364   */\n      tag_75\n        /* \"#utility.yul\":1361:1362   */\n      0x00\n        /* \"#utility.yul\":1350:1359   */\n      dup4\n        /* \"#utility.yul\":1346:1363   */\n      add\n        /* \"#utility.yul\":1337:1343   */\n      dup5\n        /* \"#utility.yul\":1293:1364   */\n      tag_52\n      jump\t// in\n    tag_75:\n        /* \"#utility.yul\":1149:1371   */\n      swap3\n      swap2\n      pop\n      pop\n      jump\t// out\n        /* \"#utility.yul\":1377:1557   */\n    tag_53:\n        /* \"#utility.yul\":1425:1502   */\n      0x4e487b7100000000000000000000000000000000000000000000000000000000\n        /* \"#utility.yul\":1422:1423   */\n      0x00\n        /* \"#utility.yul\":1415:1503   */\n      mstore\n        /* \"#utility.yul\":1522:1526   */\n      0x11\n        /* \"#utility.yul\":1519:1520   */\n      0x04\n        /* \"#utility.yul\":1512:1527   */\n      mstore\n        /* \"#utility.yul\":1546:1550   */\n      0x24\n        /* \"#utility.yul\":1543:1544   */\n      0x00\n        /* \"#utility.yul\":1536:1551   */\n      revert\n        /* \"#utility.yul\":1563:1754   */\n    tag_31:\n        /* \"#utility.yul\":1603:1606   */\n      0x00\n        /* \"#utility.yul\":1622:1642   */\n      tag_78\n        /* \"#utility.yul\":1640:1641   */\n      dup3\n        /* \"#utility.yul\":1622:1642   */\n      tag_49\n      jump\t// in\n    tag_78:\n        /* \"#utility.yul\":1617:1642   */\n      swap2\n      pop\n        /* \"#utility.yul\":1656:1676   */\n      tag_79\n        /* \"#utility.yul\":1674:1675   */\n      dup4\n        /* \"#utility.yul\":1656:1676   */\n      tag_49\n      jump\t// in\n    tag_79:\n        /* \"#utility.yul\":1651:1676   */\n      swap3\n      pop\n        /* \"#utility.yul\":1699:1700   */\n      dup3\n        /* \"#utility.yul\":1696:1697   */\n      dup3\n        /* \"#utility.yul\":1692:1701   */\n      add\n        /* \"#utility.yul\":1685:1701   */\n      swap1\n      pop\n        /* \"#utility.yul\":1720:1723   */\n      dup1\n        /* \"#utility.yul\":1717:1718   */\n      dup3\n        /* \"#utility.yul\":1714:1724   */\n      gt\n        /* \"#utility.yul\":1711:1747   */\n      iszero\n      tag_80\n      jumpi\n        /* \"#utility.yul\":1727:1745   */\n      tag_81\n      tag_53\n      jump\t// in\n    tag_81:\n        /* \"#utility.yul\":1711:1747   */\n    tag_80:\n        /* \"#utility.yul\":1563:1754   */\n      swap3\n      swap2\n      pop\n      pop\n      jump\t// out\n        /* \"#utility.yul\":1760:1954   */\n    tag_34:\n        /* \"#utility.yul\":1800:1804   */\n      0x00\n        /* \"#utility.yul\":1820:1840   */\n      tag_83\n        /* \"#utility.yul\":1838:1839   */\n      dup3\n        /* \"#utility.yul\":1820:1840   */\n      tag_49\n      jump\t// in\n    tag_83:\n        /* \"#utility.yul\":1815:1840   */\n      swap2\n      pop\n        /* \"#utility.yul\":1854:1874   */\n      tag_84\n        /* \"#utility.yul\":1872:1873   */\n      dup4\n        /* \"#utility.yul\":1854:1874   */\n      tag_49\n      jump\t// in\n    tag_84:\n        /* \"#utility.yul\":1849:1874   */\n      swap3\n      pop\n        /* \"#utility.yul\":1898:1899   */\n      dup3\n        /* \"#utility.yul\":1895:1896   */\n      dup3\n        /* \"#utility.yul\":1891:1900   */\n      sub\n        /* \"#utility.yul\":1883:1900   */\n      swap1\n      pop\n        /* \"#utility.yul\":1922:1923   */\n      dup2\n        /* \"#utility.yul\":1916:1920   */\n      dup2\n        /* \"#utility.yul\":1913:1924   */\n      gt\n        /* \"#utility.yul\":1910:1947   */\n      iszero\n      tag_85\n      jumpi\n        /* \"#utility.yul\":1927:1945   */\n      tag_86\n      tag_53\n      jump\t// in\n    tag_86:\n        /* \"#utility.yul\":1910:1947   */\n    tag_85:\n        /* \"#utility.yul\":1760:1954   */\n      swap3\n      swap2\n      pop\n      pop\n      jump\t// out\n        /* \"#utility.yul\":1960:2140   */\n    tag_54:\n        /* \"#utility.yul\":2008:2085   */\n      0x4e487b7100000000000000000000000000000000000000000000000000000000\n        /* \"#utility.yul\":2005:2006   */\n      0x00\n        /* \"#utility.yul\":1998:2086   */\n      mstore\n        /* \"#utility.yul\":2105:2109   */\n      0x12\n        /* \"#utility.yul\":2102:2103   */\n      0x04\n        /* \"#utility.yul\":2095:2110   */\n      mstore\n        /* \"#utility.yul\":2129:2133   */\n      0x24\n        /* \"#utility.yul\":2126:2127   */\n      0x00\n        /* \"#utility.yul\":2119:2134   */\n      revert\n        /* \"#utility.yul\":2146:2331   */\n    tag_38:\n        /* \"#utility.yul\":2186:2187   */\n      0x00\n        /* \"#utility.yul\":2203:2223   */\n      tag_89\n        /* \"#utility.yul\":2221:2222   */\n      dup3\n        /* \"#utility.yul\":2203:2223   */\n      tag_49\n      jump\t// in\n    tag_89:\n        /* \"#utility.yul\":2198:2223   */\n      swap2\n      pop\n        /* \"#utility.yul\":2237:2257   */\n      tag_90\n        /* \"#utility.yul\":2255:2256   */\n      dup4\n        /* \"#utility.yul\":2237:2257   */\n      tag_49\n      jump\t// in\n    tag_90:\n        /* \"#utility.yul\":2232:2257   */\n      swap3\n      pop\n        /* \"#utility.yul\":2276:2277   */\n      dup3\n        /* \"#utility.yul\":2266:2301   */\n      tag_91\n      jumpi\n        /* \"#utility.yul\":2281:2299   */\n      tag_92\n      tag_54\n      jump\t// in\n    tag_92:\n        /* \"#utility.yul\":2266:2301   */\n    tag_91:\n        /* \"#utility.yul\":2323:2324   */\n      dup3\n        /* \"#utility.yul\":2320:2321   */\n      dup3\n        /* \"#utility.yul\":2316:2325   */\n      div\n        /* \"#utility.yul\":2311:2325   */\n      swap1\n      pop\n        /* \"#utility.yul\":2146:2331   */\n      swap3\n      swap2\n      pop\n      pop\n      jump\t// out\n        /* \"#utility.yul\":2337:2747   */\n    tag_41:\n        /* \"#utility.yul\":2377:2384   */\n      0x00\n        /* \"#utility.yul\":2400:2420   */\n      tag_94\n        /* \"#utility.yul\":2418:2419   */\n      dup3\n        /* \"#utility.yul\":2400:2420   */\n      tag_49\n      jump\t// in\n    tag_94:\n        /* \"#utility.yul\":2395:2420   */\n      swap2\n      pop\n        /* \"#utility.yul\":2434:2454   */\n      tag_95\n        /* \"#utility.yul\":2452:2453   */\n      dup4\n        /* \"#utility.yul\":2434:2454   */\n      tag_49\n      jump\t// in\n    tag_95:\n        /* \"#utility.yul\":2429:2454   */\n      swap3\n      pop\n        /* \"#utility.yul\":2489:2490   */\n      dup3\n        /* \"#utility.yul\":2486:2487   */\n      dup3\n        /* \"#utility.yul\":2482:2491   */\n      mul\n        /* \"#utility.yul\":2511:2541   */\n      tag_96\n        /* \"#utility.yul\":2529:2540   */\n      dup2\n        /* \"#utility.yul\":2511:2541   */\n      tag_49\n      jump\t// in\n    tag_96:\n        /* \"#utility.yul\":2500:2541   */\n      swap2\n      pop\n        /* \"#utility.yul\":2690:2691   */\n      dup3\n        /* \"#utility.yul\":2681:2688   */\n      dup3\n        /* \"#utility.yul\":2677:2692   */\n      div\n        /* \"#utility.yul\":2674:2675   */\n      dup5\n        /* \"#utility.yul\":2671:2693   */\n      eq\n        /* \"#utility.yul\":2651:2652   */\n      dup4\n        /* \"#utility.yul\":2644:2653   */\n      iszero\n        /* \"#utility.yul\":2624:2707   */\n      or\n        /* \"#utility.yul\":2601:2740   */\n      tag_97\n      jumpi\n        /* \"#utility.yul\":2720:2738   */\n      tag_98\n      tag_53\n      jump\t// in\n    tag_98:\n        /* \"#utility.yul\":2601:2740   */\n    tag_97:\n        /* \"#utility.yul\":2385:2747   */\n      pop\n        /* \"#utility.yul\":2337:2747   */\n      swap3\n      swap2\n      pop\n      pop\n      jump\t// out\n        /* \"#utility.yul\":2753:2855   */\n    tag_55:\n        /* \"#utility.yul\":2795:2803   */\n      0x00\n        /* \"#utility.yul\":2842:2847   */\n      dup2\n        /* \"#utility.yul\":2839:2840   */\n      0x01\n        /* \"#utility.yul\":2835:2848   */\n      shr\n        /* \"#utility.yul\":2814:2848   */\n      swap1\n      pop\n        /* \"#utility.yul\":2753:2855   */\n      swap2\n      swap1\n      pop\n      jump\t// out\n        /* \"#utility.yul\":2861:3709   */\n    tag_56:\n        /* \"#utility.yul\":2922:2927   */\n      0x00\n        /* \"#utility.yul\":2929:2933   */\n      dup1\n        /* \"#utility.yul\":2953:2959   */\n      dup3\n        /* \"#utility.yul\":2944:2959   */\n      swap2\n      pop\n        /* \"#utility.yul\":2977:2982   */\n      dup4\n        /* \"#utility.yul\":2968:2982   */\n      swap1\n      pop\n        /* \"#utility.yul\":2991:3703   */\n    tag_101:\n        /* \"#utility.yul\":3012:3013   */\n      0x01\n        /* \"#utility.yul\":3002:3010   */\n      dup6\n        /* \"#utility.yul\":2999:3014   */\n      gt\n        /* \"#utility.yul\":2991:3703   */\n      iszero\n      tag_103\n      jumpi\n        /* \"#utility.yul\":3107:3111   */\n      dup1\n        /* \"#utility.yul\":3102:3105   */\n      dup7\n        /* \"#utility.yul\":3098:3112   */\n      div\n        /* \"#utility.yul\":3092:3096   */\n      dup2\n        /* \"#utility.yul\":3089:3113   */\n      gt\n        /* \"#utility.yul\":3086:3136   */\n      iszero\n      tag_104\n      jumpi\n        /* \"#utility.yul\":3116:3134   */\n      tag_105\n      tag_53\n      jump\t// in\n    tag_105:\n        /* \"#utility.yul\":3086:3136   */\n    tag_104:\n        /* \"#utility.yul\":3166:3167   */\n      0x01\n        /* \"#utility.yul\":3156:3164   */\n      dup6\n        /* \"#utility.yul\":3152:3168   */\n      and\n        /* \"#utility.yul\":3149:3600   */\n      iszero\n      tag_106\n      jumpi\n        /* \"#utility.yul\":3581:3585   */\n      dup1\n        /* \"#utility.yul\":3574:3579   */\n      dup3\n        /* \"#utility.yul\":3570:3586   */\n      mul\n        /* \"#utility.yul\":3561:3586   */\n      swap2\n      pop\n        /* \"#utility.yul\":3149:3600   */\n    tag_106:\n        /* \"#utility.yul\":3631:3635   */\n      dup1\n        /* \"#utility.yul\":3625:3629   */\n      dup2\n        /* \"#utility.yul\":3621:3636   */\n      mul\n        /* \"#utility.yul\":3613:3636   */\n      swap1\n      pop\n        /* \"#utility.yul\":3661:3693   */\n      tag_107\n        /* \"#utility.yul\":3684:3692   */\n      dup6\n        /* \"#utility.yul\":3661:3693   */\n      tag_55\n      jump\t// in\n    tag_107:\n        /* \"#utility.yul\":3649:3693   */\n      swap5\n      pop\n        /* \"#utility.yul\":2991:3703   */\n      jump(tag_101)\n    tag_103:\n        /* \"#utility.yul\":2861:3709   */\n      swap5\n      pop\n      swap5\n      swap3\n      pop\n      pop\n      pop\n      jump\t// out\n        /* \"#utility.yul\":3715:4788   */\n    tag_57:\n        /* \"#utility.yul\":3769:3774   */\n      0x00\n        /* \"#utility.yul\":3960:3968   */\n      dup3\n        /* \"#utility.yul\":3950:3990   */\n      tag_109\n      jumpi\n        /* \"#utility.yul\":3981:3982   */\n      0x01\n        /* \"#utility.yul\":3972:3982   */\n      swap1\n      pop\n        /* \"#utility.yul\":3983:3988   */\n      jump(tag_108)\n        /* \"#utility.yul\":3950:3990   */\n    tag_109:\n        /* \"#utility.yul\":4009:4013   */\n      dup2\n        /* \"#utility.yul\":3999:4035   */\n      tag_110\n      jumpi\n        /* \"#utility.yul\":4026:4027   */\n      0x00\n        /* \"#utility.yul\":4017:4027   */\n      swap1\n      pop\n        /* \"#utility.yul\":4028:4033   */\n      jump(tag_108)\n        /* \"#utility.yul\":3999:4035   */\n    tag_110:\n        /* \"#utility.yul\":4095:4099   */\n      dup2\n        /* \"#utility.yul\":4143:4144   */\n      0x01\n        /* \"#utility.yul\":4138:4165   */\n      dup2\n      eq\n      tag_112\n      jumpi\n        /* \"#utility.yul\":4179:4180   */\n      0x02\n        /* \"#utility.yul\":4174:4365   */\n      dup2\n      eq\n      tag_113\n      jumpi\n        /* \"#utility.yul\":4088:4365   */\n      jump(tag_111)\n        /* \"#utility.yul\":4138:4165   */\n    tag_112:\n        /* \"#utility.yul\":4156:4157   */\n      0x01\n        /* \"#utility.yul\":4147:4157   */\n      swap2\n      pop\n        /* \"#utility.yul\":4158:4163   */\n      pop\n      jump(tag_108)\n        /* \"#utility.yul\":4174:4365   */\n    tag_113:\n        /* \"#utility.yul\":4219:4222   */\n      0xff\n        /* \"#utility.yul\":4209:4217   */\n      dup5\n        /* \"#utility.yul\":4206:4223   */\n      gt\n        /* \"#utility.yul\":4203:4246   */\n      iszero\n      tag_114\n      jumpi\n        /* \"#utility.yul\":4226:4244   */\n      tag_115\n      tag_53\n      jump\t// in\n    tag_115:\n        /* \"#utility.yul\":4203:4246   */\n    tag_114:\n        /* \"#utility.yul\":4275:4283   */\n      dup4\n        /* \"#utility.yul\":4272:4273   */\n      0x02\n        /* \"#utility.yul\":4268:4284   */\n      exp\n        /* \"#utility.yul\":4259:4284   */\n      swap2\n      pop\n        /* \"#utility.yul\":4310:4313   */\n      dup5\n        /* \"#utility.yul\":4303:4308   */\n      dup3\n        /* \"#utility.yul\":4300:4314   */\n      gt\n        /* \"#utility.yul\":4297:4337   */\n      iszero\n      tag_116\n      jumpi\n        /* \"#utility.yul\":4317:4335   */\n      tag_117\n      tag_53\n      jump\t// in\n    tag_117:\n        /* \"#utility.yul\":4297:4337   */\n    tag_116:\n        /* \"#utility.yul\":4350:4355   */\n      pop\n      jump(tag_108)\n        /* \"#utility.yul\":4088:4365   */\n    tag_111:\n      pop\n        /* \"#utility.yul\":4474:4476   */\n      0x20\n        /* \"#utility.yul\":4464:4472   */\n      dup4\n        /* \"#utility.yul\":4461:4477   */\n      lt\n        /* \"#utility.yul\":4455:4458   */\n      0x0133\n        /* \"#utility.yul\":4449:4453   */\n      dup4\n        /* \"#utility.yul\":4446:4459   */\n      lt\n        /* \"#utility.yul\":4442:4478   */\n      and\n        /* \"#utility.yul\":4424:4426   */\n      0x4e\n        /* \"#utility.yul\":4414:4422   */\n      dup5\n        /* \"#utility.yul\":4411:4427   */\n      lt\n        /* \"#utility.yul\":4406:4408   */\n      0x0b\n        /* \"#utility.yul\":4400:4404   */\n      dup5\n        /* \"#utility.yul\":4397:4409   */\n      lt\n        /* \"#utility.yul\":4393:4428   */\n      and\n        /* \"#utility.yul\":4377:4488   */\n      or\n        /* \"#utility.yul\":4374:4620   */\n      iszero\n      tag_118\n      jumpi\n        /* \"#utility.yul\":4530:4538   */\n      dup3\n        /* \"#utility.yul\":4524:4528   */\n      dup3\n        /* \"#utility.yul\":4520:4539   */\n      exp\n        /* \"#utility.yul\":4511:4539   */\n      swap1\n      pop\n        /* \"#utility.yul\":4565:4568   */\n      dup4\n        /* \"#utility.yul\":4558:4563   */\n      dup2\n        /* \"#utility.yul\":4555:4569   */\n      gt\n        /* \"#utility.yul\":4552:4592   */\n      iszero\n      tag_119\n      jumpi\n        /* \"#utility.yul\":4572:4590   */\n      tag_120\n      tag_53\n      jump\t// in\n    tag_120:\n        /* \"#utility.yul\":4552:4592   */\n    tag_119:\n        /* \"#utility.yul\":4605:4610   */\n      jump(tag_108)\n        /* \"#utility.yul\":4374:4620   */\n    tag_118:\n        /* \"#utility.yul\":4645:4687   */\n      tag_121\n        /* \"#utility.yul\":4683:4686   */\n      dup5\n        /* \"#utility.yul\":4673:4681   */\n      dup5\n        /* \"#utility.yul\":4667:4671   */\n      dup5\n        /* \"#utility.yul\":4664:4665   */\n      0x01\n        /* \"#utility.yul\":4645:4687   */\n      tag_56\n      jump\t// in\n    tag_121:\n        /* \"#utility.yul\":4630:4687   */\n      swap3\n      pop\n      swap1\n      pop\n        /* \"#utility.yul\":4719:4723   */\n      dup2\n        /* \"#utility.yul\":4714:4717   */\n      dup5\n        /* \"#utility.yul\":4710:4724   */\n      div\n        /* \"#utility.yul\":4703:4708   */\n      dup2\n        /* \"#utility.yul\":4700:4725   */\n      gt\n        /* \"#utility.yul\":4697:4748   */\n      iszero\n      tag_122\n      jumpi\n        /* \"#utility.yul\":4728:4746   */\n      tag_123\n      tag_53\n      jump\t// in\n    tag_123:\n        /* \"#utility.yul\":4697:4748   */\n    tag_122:\n        /* \"#utility.yul\":4777:4781   */\n      dup2\n        /* \"#utility.yul\":4770:4775   */\n      dup2\n        /* \"#utility.yul\":4766:4782   */\n      mul\n        /* \"#utility.yul\":4757:4782   */\n      swap1\n      pop\n        /* \"#utility.yul\":3715:4788   */\n    tag_108:\n      swap4\n      swap3\n      pop\n      pop\n      pop\n      jump\t// out\n        /* \"#utility.yul\":4794:5079   */\n    tag_44:\n        /* \"#utility.yul\":4854:4859   */\n      0x00\n        /* \"#utility.yul\":4878:4901   */\n      tag_125\n        /* \"#utility.yul\":4896:4900   */\n      dup3\n        /* \"#utility.yul\":4878:4901   */\n      tag_49\n      jump\t// in\n    tag_125:\n        /* \"#utility.yul\":4870:4901   */\n      swap2\n      pop\n        /* \"#utility.yul\":4922:4949   */\n      tag_126\n        /* \"#utility.yul\":4940:4948   */\n      dup4\n        /* \"#utility.yul\":4922:4949   */\n      tag_49\n      jump\t// in\n    tag_126:\n        /* \"#utility.yul\":4910:4949   */\n      swap3\n      pop\n        /* \"#utility.yul\":4968:5072   */\n      tag_127\n        /* \"#utility.yul\":5005:5071   */\n      0xffffffffffffffffffffffffffffffffffffffffffffffffffffffffffffffff\n        /* \"#utility.yul\":4995:5003   */\n      dup5\n        /* \"#utility.yul\":4989:4993   */\n      dup5\n        /* \"#utility.yul\":4968:5072   */\n      tag_57\n      jump\t// in\n    tag_127:\n        /* \"#utility.yul\":4959:5072   */\n      swap1\n      pop\n        /* \"#utility.yul\":4794:5079   */\n      swap3\n      swap2\n      pop\n      pop\n      jump\t// out\n\n    auxdata: 0xa26469706673582212204dd96fe43d3fa16bc488af11315a03ffcbe219929ede41825ad5a8de91460a5564736f6c634300081a0033\n}\n",
				"bytecode": {
					"linkReferences": {},
					"object": "60806040525f80553480156011575f80fd5b506105058061001f5f395ff3fe608060405234801561000f575f80fd5b5060043610610060575f3560e01c80631003e2d2146100645780631dc05f17146100805780633e823f791461009c578063c6888fa1146100b8578063cc193fb0146100d4578063cc80f6f3146100f0575b5f80fd5b61007e600480360381019061007991906101d2565b61010e565b005b61009a600480360381019061009591906101d2565b610128565b005b6100b660048036038101906100b191906101d2565b610142565b005b6100d260048036038101906100cd91906101d2565b610164565b005b6100ee60048036038101906100e991906101d2565b61017e565b005b6100f8610193565b604051610105919061020c565b60405180910390f35b805f8082825461011e9190610252565b9250508190555050565b805f808282546101389190610285565b9250508190555050565b5f811461016157805f8082825461015991906102e5565b925050819055505b50565b805f808282546101749190610315565b9250508190555050565b805f5461018b9190610485565b5f8190555050565b5f8054905090565b5f80fd5b5f819050919050565b6101b18161019f565b81146101bb575f80fd5b50565b5f813590506101cc816101a8565b92915050565b5f602082840312156101e7576101e661019b565b5b5f6101f4848285016101be565b91505092915050565b6102068161019f565b82525050565b5f60208201905061021f5f8301846101fd565b92915050565b7f4e487b71000000000000000000000000000000000000000000000000000000005f52601160045260245ffd5b5f61025c8261019f565b91506102678361019f565b925082820190508082111561027f5761027e610225565b5b92915050565b5f61028f8261019f565b915061029a8361019f565b92508282039050818111156102b2576102b1610225565b5b92915050565b7f4e487b71000000000000000000000000000000000000000000000000000000005f52601260045260245ffd5b5f6102ef8261019f565b91506102fa8361019f565b92508261030a576103096102b8565b5b828204905092915050565b5f61031f8261019f565b915061032a8361019f565b92508282026103388161019f565b9150828204841483151761034f5761034e610225565b5b5092915050565b5f8160011c9050919050565b5f808291508390505b60018511156103ab5780860481111561038757610386610225565b5b60018516156103965780820291505b80810290506103a485610356565b945061036b565b94509492505050565b5f826103c3576001905061047e565b816103d0575f905061047e565b81600181146103e657600281146103f05761041f565b600191505061047e565b60ff84111561040257610401610225565b5b8360020a91508482111561041957610418610225565b5b5061047e565b5060208310610133831016604e8410600b84101617156104545782820a90508381111561044f5761044e610225565b5b61047e565b6104618484846001610362565b9250905081840481111561047857610477610225565b5b81810290505b9392505050565b5f61048f8261019f565b915061049a8361019f565b92506104c77fffffffffffffffffffffffffffffffffffffffffffffffffffffffffffffffff84846103b4565b90509291505056fea26469706673582212204dd96fe43d3fa16bc488af11315a03ffcbe219929ede41825ad5a8de91460a5564736f6c634300081a0033",
					"opcodes": "PUSH1 0x80 PUSH1 0x40 MSTORE PUSH0 DUP1 SSTORE CALLVALUE DUP1 ISZERO PUSH1 0x11 JUMPI PUSH0 DUP1 REVERT JUMPDEST POP PUSH2 0x505 DUP1 PUSH2 0x1F PUSH0 CODECOPY PUSH0 RETURN INVALID PUSH1 0x80 PUSH1 0x40 MSTORE CALLVALUE DUP1 ISZERO PUSH2 0xF JUMPI PUSH0 DUP1 REVERT JUMPDEST POP PUSH1 0x4 CALLDATASIZE LT PUSH2 0x60 JUMPI PUSH0 CALLDATALOAD PUSH1 0xE0 SHR DUP1 PUSH4 0x1003E2D2 EQ PUSH2 0x64 JUMPI DUP1 PUSH4 0x1DC05F17 EQ PUSH2 0x80 JUMPI DUP1 PUSH4 0x3E823F79 EQ PUSH2 0x9C JUMPI DUP1 PUSH4 0xC6888FA1 EQ PUSH2 0xB8 JUMPI DUP1 PUSH4 0xCC193FB0 EQ PUSH2 0xD4 JUMPI DUP1 PUSH4 0xCC80F6F3 EQ PUSH2 0xF0 JUMPI JUMPDEST PUSH0 DUP1 REVERT JUMPDEST PUSH2 0x7E PUSH1 0x4 DUP1 CALLDATASIZE SUB DUP2 ADD SWAP1 PUSH2 0x79 SWAP2 SWAP1 PUSH2 0x1D2 JUMP JUMPDEST PUSH2 0x10E JUMP JUMPDEST STOP JUMPDEST PUSH2 0x9A PUSH1 0x4 DUP1 CALLDATASIZE SUB DUP2 ADD SWAP1 PUSH2 0x95 SWAP2 SWAP1 PUSH2 0x1D2 JUMP JUMPDEST PUSH2 0x128 JUMP JUMPDEST STOP JUMPDEST PUSH2 0xB6 PUSH1 0x4 DUP1 CALLDATASIZE SUB DUP2 ADD SWAP1 PUSH2 0xB1 SWAP2 SWAP1 PUSH2 0x1D2 JUMP JUMPDEST PUSH2 0x142 JUMP JUMPDEST STOP JUMPDEST PUSH2 0xD2 PUSH1 0x4 DUP1 CALLDATASIZE SUB DUP2 ADD SWAP1 PUSH2 0xCD SWAP2 SWAP1 PUSH2 0x1D2 JUMP JUMPDEST PUSH2 0x164 JUMP JUMPDEST STOP JUMPDEST PUSH2 0xEE PUSH1 0x4 DUP1 CALLDATASIZE SUB DUP2 ADD SWAP1 PUSH2 0xE9 SWAP2 SWAP1 PUSH2 0x1D2 JUMP JUMPDEST PUSH2 0x17E JUMP JUMPDEST STOP JUMPDEST PUSH2 0xF8 PUSH2 0x193 JUMP JUMPDEST PUSH1 0x40 MLOAD PUSH2 0x105 SWAP2 SWAP1 PUSH2 0x20C JUMP JUMPDEST PUSH1 0x40 MLOAD DUP1 SWAP2 SUB SWAP1 RETURN JUMPDEST DUP1 PUSH0 DUP1 DUP3 DUP3 SLOAD PUSH2 0x11E SWAP2 SWAP1 PUSH2 0x252 JUMP JUMPDEST SWAP3 POP POP DUP2 SWAP1 SSTORE POP POP JUMP JUMPDEST DUP1 PUSH0 DUP1 DUP3 DUP3 SLOAD PUSH2 0x138 SWAP2 SWAP1 PUSH2 0x285 JUMP JUMPDEST SWAP3 POP POP DUP2 SWAP1 SSTORE POP POP JUMP JUMPDEST PUSH0 DUP2 EQ PUSH2 0x161 JUMPI DUP1 PUSH0 DUP1 DUP3 DUP3 SLOAD PUSH2 0x159 SWAP2 SWAP1 PUSH2 0x2E5 JUMP JUMPDEST SWAP3 POP POP DUP2 SWAP1 SSTORE POP JUMPDEST POP JUMP JUMPDEST DUP1 PUSH0 DUP1 DUP3 DUP3 SLOAD PUSH2 0x174 SWAP2 SWAP1 PUSH2 0x315 JUMP JUMPDEST SWAP3 POP POP DUP2 SWAP1 SSTORE POP POP JUMP JUMPDEST DUP1 PUSH0 SLOAD PUSH2 0x18B SWAP2 SWAP1 PUSH2 0x485 JUMP JUMPDEST PUSH0 DUP2 SWAP1 SSTORE POP POP JUMP JUMPDEST PUSH0 DUP1 SLOAD SWAP1 POP SWAP1 JUMP JUMPDEST PUSH0 DUP1 REVERT JUMPDEST PUSH0 DUP2 SWAP1 POP SWAP2 SWAP1 POP JUMP JUMPDEST PUSH2 0x1B1 DUP2 PUSH2 0x19F JUMP JUMPDEST DUP2 EQ PUSH2 0x1BB JUMPI PUSH0 DUP1 REVERT JUMPDEST POP JUMP JUMPDEST PUSH0 DUP2 CALLDATALOAD SWAP1 POP PUSH2 0x1CC DUP2 PUSH2 0x1A8 JUMP JUMPDEST SWAP3 SWAP2 POP POP JUMP JUMPDEST PUSH0 PUSH1 0x20 DUP3 DUP5 SUB SLT ISZERO PUSH2 0x1E7 JUMPI PUSH2 0x1E6 PUSH2 0x19B JUMP JUMPDEST JUMPDEST PUSH0 PUSH2 0x1F4 DUP5 DUP3 DUP6 ADD PUSH2 0x1BE JUMP JUMPDEST SWAP2 POP POP SWAP3 SWAP2 POP POP JUMP JUMPDEST PUSH2 0x206 DUP2 PUSH2 0x19F JUMP JUMPDEST DUP3 MSTORE POP POP JUMP JUMPDEST PUSH0 PUSH1 0x20 DUP3 ADD SWAP1 POP PUSH2 0x21F PUSH0 DUP4 ADD DUP5 PUSH2 0x1FD JUMP JUMPDEST SWAP3 SWAP2 POP POP JUMP JUMPDEST PUSH32 0x4E487B7100000000000000000000000000000000000000000000000000000000 PUSH0 MSTORE PUSH1 0x11 PUSH1 0x4 MSTORE PUSH1 0x24 PUSH0 REVERT JUMPDEST PUSH0 PUSH2 0x25C DUP3 PUSH2 0x19F JUMP JUMPDEST SWAP2 POP PUSH2 0x267 DUP4 PUSH2 0x19F JUMP JUMPDEST SWAP3 POP DUP3 DUP3 ADD SWAP1 POP DUP1 DUP3 GT ISZERO PUSH2 0x27F JUMPI PUSH2 0x27E PUSH2 0x225 JUMP JUMPDEST JUMPDEST SWAP3 SWAP2 POP POP JUMP JUMPDEST PUSH0 PUSH2 0x28F DUP3 PUSH2 0x19F JUMP JUMPDEST SWAP2 POP PUSH2 0x29A DUP4 PUSH2 0x19F JUMP JUMPDEST SWAP3 POP DUP3 DUP3 SUB SWAP1 POP DUP2 DUP2 GT ISZERO PUSH2 0x2B2 JUMPI PUSH2 0x2B1 PUSH2 0x225 JUMP JUMPDEST JUMPDEST SWAP3 SWAP2 POP POP JUMP JUMPDEST PUSH32 0x4E487B7100000000000000000000000000000000000000000000000000000000 PUSH0 MSTORE PUSH1 0x12 PUSH1 0x4 MSTORE PUSH1 0x24 PUSH0 REVERT JUMPDEST PUSH0 PUSH2 0x2EF DUP3 PUSH2 0x19F JUMP JUMPDEST SWAP2 POP PUSH2 0x2FA DUP4 PUSH2 0x19F JUMP JUMPDEST SWAP3 POP DUP3 PUSH2 0x30A JUMPI PUSH2 0x309 PUSH2 0x2B8 JUMP JUMPDEST JUMPDEST DUP3 DUP3 DIV SWAP1 POP SWAP3 SWAP2 POP POP JUMP JUMPDEST PUSH0 PUSH2 0x31F DUP3 PUSH2 0x19F JUMP JUMPDEST SWAP2 POP PUSH2 0x32A DUP4 PUSH2 0x19F JUMP JUMPDEST SWAP3 POP DUP3 DUP3 MUL PUSH2 0x338 DUP2 PUSH2 0x19F JUMP JUMPDEST SWAP2 POP DUP3 DUP3 DIV DUP5 EQ DUP4 ISZERO OR PUSH2 0x34F JUMPI PUSH2 0x34E PUSH2 0x225 JUMP JUMPDEST JUMPDEST POP SWAP3 SWAP2 POP POP JUMP JUMPDEST PUSH0 DUP2 PUSH1 0x1 SHR SWAP1 POP SWAP2 SWAP1 POP JUMP JUMPDEST PUSH0 DUP1 DUP3 SWAP2 POP DUP4 SWAP1 POP JUMPDEST PUSH1 0x1 DUP6 GT ISZERO PUSH2 0x3AB JUMPI DUP1 DUP7 DIV DUP2 GT ISZERO PUSH2 0x387 JUMPI PUSH2 0x386 PUSH2 0x225 JUMP JUMPDEST JUMPDEST PUSH1 0x1 DUP6 AND ISZERO PUSH2 0x396 JUMPI DUP1 DUP3 MUL SWAP2 POP JUMPDEST DUP1 DUP2 MUL SWAP1 POP PUSH2 0x3A4 DUP6 PUSH2 0x356 JUMP JUMPDEST SWAP5 POP PUSH2 0x36B JUMP JUMPDEST SWAP5 POP SWAP5 SWAP3 POP POP POP JUMP JUMPDEST PUSH0 DUP3 PUSH2 0x3C3 JUMPI PUSH1 0x1 SWAP1 POP PUSH2 0x47E JUMP JUMPDEST DUP2 PUSH2 0x3D0 JUMPI PUSH0 SWAP1 POP PUSH2 0x47E JUMP JUMPDEST DUP2 PUSH1 0x1 DUP2 EQ PUSH2 0x3E6 JUMPI PUSH1 0x2 DUP2 EQ PUSH2 0x3F0 JUMPI PUSH2 0x41F JUMP JUMPDEST PUSH1 0x1 SWAP2 POP POP PUSH2 0x47E JUMP JUMPDEST PUSH1 0xFF DUP5 GT ISZERO PUSH2 0x402 JUMPI PUSH2 0x401 PUSH2 0x225 JUMP JUMPDEST JUMPDEST DUP4 PUSH1 0x2 EXP SWAP2 POP DUP5 DUP3 GT ISZERO PUSH2 0x419 JUMPI PUSH2 0x418 PUSH2 0x225 JUMP JUMPDEST JUMPDEST POP PUSH2 0x47E JUMP JUMPDEST POP PUSH1 0x20 DUP4 LT PUSH2 0x133 DUP4 LT AND PUSH1 0x4E DUP5 LT PUSH1 0xB DUP5 LT AND OR ISZERO PUSH2 0x454 JUMPI DUP3 DUP3 EXP SWAP1 POP DUP4 DUP2 GT ISZERO PUSH2 0x44F JUMPI PUSH2 0x44E PUSH2 0x225 JUMP JUMPDEST JUMPDEST PUSH2 0x47E JUMP JUMPDEST PUSH2 0x461 DUP5 DUP5 DUP5 PUSH1 0x1 PUSH2 0x362 JUMP JUMPDEST SWAP3 POP SWAP1 POP DUP2 DUP5 DIV DUP2 GT ISZERO PUSH2 0x478 JUMPI PUSH2 0x477 PUSH2 0x225 JUMP JUMPDEST JUMPDEST DUP2 DUP2 MUL SWAP1 POP JUMPDEST SWAP4 SWAP3 POP POP POP JUMP JUMPDEST PUSH0 PUSH2 0x48F DUP3 PUSH2 0x19F JUMP JUMPDEST SWAP2 POP PUSH2 0x49A DUP4 PUSH2 0x19F JUMP JUMPDEST SWAP3 POP PUSH2 0x4C7 PUSH32 0xFFFFFFFFFFFFFFFFFFFFFFFFFFFFFFFFFFFFFFFFFFFFFFFFFFFFFFFFFFFFFFFF DUP5 DUP5 PUSH2 0x3B4 JUMP JUMPDEST SWAP1 POP SWAP3 SWAP2 POP POP JUMP INVALID LOG2 PUSH5 0x6970667358 0x22 SLT KECCAK256 0x4D 0xD9 PUSH16 0xE43D3FA16BC488AF11315A03FFCBE219 SWAP3 SWAP15 0xDE COINBASE DUP3 GAS 0xD5 0xA8 0xDE SWAP2 CHAINID EXP SSTORE PUSH5 0x736F6C6343 STOP ADDMOD BYTE STOP CALLER "
				},
				"gasEstimates": {
					"creation": {
						"codeDepositCost": "257000",
						"executionCost": "5303",
						"totalCost": "262303"
					},
					"external": {
						"add(uint256)": "infinite",
						"divide(uint256)": "infinite",
						"multiply(uint256)": "infinite",
						"power(uint256)": "infinite",
						"show()": "2520",
						"subtract(uint256)": "infinite"
					}
				},
				"methodIdentifiers": {
					"add(uint256)": "1003e2d2",
					"divide(uint256)": "3e823f79",
					"multiply(uint256)": "c6888fa1",
					"power(uint256)": "cc193fb0",
					"show()": "cc80f6f3",
					"subtract(uint256)": "1dc05f17"
				}
			},
			"storageLayout": {
				"storage": [
					{
						"astId": 4,
						"contract": "contracts/calculator.sol:calculator",
						"label": "result",
						"offset": 0,
						"slot": "0",
						"type": "t_uint256"
					}
				],
				"types": {
					"t_uint256": {
						"encoding": "inplace",
						"label": "uint256",
						"numberOfBytes": "32"
					}
				}
			},
			"userdoc": {
				"kind": "user",
				"methods": {},
				"version": 1
			}
		}
	}
}